:060000000A128A11F22F22
:10000A00F401F501701C0F287208F4070318F50AA9
:10001A007308F50701300310F20DF30DFF3E031DBF
:10002A00102801300310F10CF00CFF3E031D1728B5
:10003A0070087104031D07287508F1007408F000A0
:10004A000800F300F101F2017108730784000A1233
:10005A008A1500200A128A11003A03190800710849
:10006A00730784000A128A1500200A128A110A12DA
:10007A008A15A8270A128A110130F1070318F20A11
:10008A000030F20729286528831203130812881200
:10009A00081388130800831203130816881208131A
:1000AA00881308008312031308128816081388138A
:1000BA000800831203130816881608138813080009
:1000CA007108003A03196A2878287008003A031957
:1000DA004928013A03195028033A03195728013AC3
:1000EA0003195E2878280800FB01FC0176087704CA
:1000FA000319B028FD01FD0AF71B8F2801300310F0
:10010A00F60DF70DFF3E031D84280130FA007A0828
:10011A00FD07812801300310FB0DFC0DFF3E031D76
:10012A00902877087902031D9C2876087802031C18
:10013A00A5287608F8027708031CF903F9027B144C
:10014A0001300310F70CF60CFF3E031DA628013000
:10015A00FD02031D8F287C08F7007B08F6000800C3
:10016A00F601F31FBF28F209F309F20A0319F30A89
:10017A00F601F60AF11FC628F009F109F00A031977
:10018A00F10A700871040319F328F501F50AF11B45
:10019A00DA2801300310F00DF10DFF3E031DCF28C0
:1001AA000130F4007408F507CC2871087302031DA6
:1001BA00E02870087202031CE8287008F20271082D
:1001CA00031CF303F30201300310F10CF00CFF3EA1
:1001DA00031DE9280130F502031DDA287608031900
:1001EA00FB28F209F309F20A0319F30A7308F1006A
:1001FA007208F0000800332930300A128A15A8273D
:10020A00080031300A128A15A827080032300A126B
:10021A008A15A827080033300A128A15A827080069
:10022A0034300A128A15A827080035300A128A15AE
:10023A00A827080036300A128A15A827080037307E
:10024A000A128A15A827080038300A128A15A82720
:10025A00080039300A128A15A82708007208003ADD
:10026A000319382958297108003A03190129013A52
:10027A0003190629033A03190B29013A031910290C
:10028A00073A03191529013A03191A29033A0319D6
:10029A001F29013A031924290F3A03192929013A76
:1002AA0003192E2958290800F601F11F6329F009BC
:1002BA00F109F00A0319F10AF601F60AF31F6E2989
:1002CA00F209F309F20A0319F30A0130F400740877
:1002DA00F606F701F801700871040319A529F5015A
:1002EA00F50AF11B842901300310F00DF10DFF3ED0
:1002FA00031D79290130F4007408F50776290130C5
:10030A000310F70DF80DFF3E031D852971087302CE
:10031A00031D912970087202031C9A297008F202BF
:10032A007108031CF303F302771401300310F10C74
:10033A00F00CFF3E031D9B290130F502031D8429A1
:10034A0076080319AD29F709F809F70A0319F80A13
:10035A007808F1007708F000080073080319BA2931
:10036A00720871047004031DCD290030F0000030BA
:10037A00F1000030F20008000130F5007508F307BB
:10038A0001300310F20CF10CF00CFF3E031DC629DC
:10039A00FE3072050319E829C1290130F5007508F4
:1003AA00F3070130F007003003180130F10700307D
:1003BA0003180130F20701300310F20CF10CF00CB3
:1003CA00FF3E031DE129FF3072050319F729D229DF
:1003DA000130F30201300310F00DF10DF20DFF3E72
:1003EA00031DF029F11BFD29023073020318ED29C0
:1003FA007318052AFF30F0057F30F105FF30F2054A
:10040A000310F30C7308F500F601F701103003101E
:10041A00F50DF60DF70DFF3E031D0C2A7508F004C5
:10042A007608F1047708F204740803190800F21731
:10043A0008001E308316031392000030F3000F30B9
:10044A00F2004230F1004030F00012088312031328
:10045A00A800A9010310A80DA90D0310A80DA90D44
:10046A00A80EA90EF030A90528080F39A904F03002
:10047A00A8052808403EF40029080318013E003E5A
:10048A00F500F601F51BF6037608F7000A128A1141
:10049A0033230A128A11710883120313E5007008C4
:1004AA00E4006430F6000030F700831603131208E4
:1004BA0083120313A800A9010310A80DA90D0310A4
:1004CA00A80DA90D2808043EF00029080318013ECA
:1004DA00003EF1002708F3002608F2000A128A11EA
:1004EA0005200A128A117108F9007008F8000A1228
:1004FA008A117920770883120313E3007608E20051
:10050A0062080239A800A80EA80D17082806DF39C4
:10051A002806970062080139A800A80E17082806BD
:10052A00EF39280697006308A9006208A80003109B
:10053A00A90CA80C0310A90CA80C280895000800FF
:10054A00831203134408C8004508C9004608CA00B4
:10055A000310490D4A0DCB004B08D1005108031D69
:10056A00BF2A0030C7000030C6000030C500003086
:10057A00C40008004408C8004508C9004608CA0063
:10058A0017300310CA0CC90CC80CFF3E031DC62A3B
:10059A004808CB004B08CC00C517FF30C405FF3014
:1005AA00C5050030C6054408CD004508CE004608FA
:1005BA00CF00D0018E30D102D11F012B5108803AD1
:1005CA008F3E0318F12A0030C7000030C600003001
:1005DA00C5000030C400080001300310D00CCF0C55
:1005EA00CE0CCD0CFF3E031DF22A0130C80048088C
:1005FA00D10703191C2BF12A18305102031C192B9D
:10060A000030C7000030C6000030C5000030C4000A
:10061A0008000130C8000310CD0DCE0DCF0DD00D4E
:10062A00C80B102B0130D1025108031D0E2B4C08A8
:10063A0003192A2BCD09CE09CF09D009CD0A0319EE
:10064A00CE0A0319CF0A0319D00A5008C7004F0867
:10065A00C6004E08C5004D08C400080083120313E3
:10066A00A101F31F452BF009F109F209F309F00A78
:10067A000319F10A0319F20A0319F30AA101A10ADB
:10068A00F71F562BF409F509F609F709F40A0319B5
:10069A00F50A0319F60A0319F70A0130F80078086F
:1006AA00A1060030A5000030A4000030A3000030ED
:1006BA00A20073087204710470040319AB2BA00121
:1006CA00A00AF31B762B0130F8000310F00DF10D90
:1006DA00F20DF30DF80B6A2B0130F8007808A00729
:1006EA00662B0130F8000310A20DA30DA40DA50D71
:1006FA00F80B782B73087702031D8D2B720876028C
:10070A00031D8D2B71087502031D8D2B7008740251
:10071A00031C9E2B7008F4027108031C710FF5026A
:10072A007208031C720FF6027308031C730FF70298
:10073A00221401300310F30CF20CF10CF00CFF3E02
:10074A00031D9F2B0130A002031D762B21080319DC
:10075A00B92BA209A309A409A509A20A0319A30A84
:10076A000319A40A0319A50A2508F3002408F200AC
:10077A002308F1002208F000080083120313DA01AB
:10078A00DB01D601D701D801D9011F15831603133E
:10079A001E080A128A15C7270A128A1178088312B4
:1007AA000313A7007908A8007A08A9000030A4005A
:1007BA00FA30A5004330A6000A128A111D250A1232
:1007CA008A11831203132408B7002508B8002608E3
:1007DA00B900C030B4007F30B5004430B6000A1208
:1007EA008A1165240A128A11831203133408C40079
:1007FA003508C5003608C6000A128A11A5220A124F
:10080A008A11831203134508DB004408DA005B08E7
:10081A00E7005A08E6005B08803AFF0080307F0252
:10082A00031D192C01305A02031C602C8312031376
:10083A005808D20001300310D20DFF3E031D202CB0
:10084A000310520DD300D30A0A30F0000030F10031
:10085A005B08F3005A08F2000A128A11B5200A123C
:10086A008A11700883120313D4007108D500402C32
:10087A000310D40DD50DD30B3D2C5408D6045508BE
:10088A00D7040130D8070318D90A0030D9070A302B
:10089A00F0000030F1005B08F3005A08F2000A1277
:1008AA008A1159210A128A11710883120313DB0073
:1008BA007008DA00102C8312031356088600080009
:1008CA00831203133708BA003808BB003908BC0082
:1008DA0003103B0D3C0DBD003D08C2004208031D3C
:1008EA007D2C0030B4000030B5000030B60008009E
:1008FA003408BA003508BB003608BC0003103B0DAB
:10090A003C0DBD003D08C3004308031D932C003075
:10091A00B4000030B5000030B60008000030BF0057
:10092A000030C0000030C10089304307BA003A08DD
:10093A00C2023708BA003808BB003908BC001030B8
:10094A000310BC0CBB0CBA0CFF3E031DA52C3A08C5
:10095A00BD003D08C3003408BA003508BB0036089C
:10096A00BC0010300310BC0CBB0CBA0CFF3E031DBC
:10097A00B72C3A08BD003D08C3068030BA003A08D1
:10098A00C305B817FF30B705FF30B8050030B90501
:10099A00B517FF30B405FF30B5050030B60518307D
:1009AA00BA003A08BE0001300310BF0DC00DC10DD8
:1009BA00FF3E031DD92C36083902031DEA2C3508DF
:1009CA003802031DEA2C34083702031CF72C3408BA
:1009DA00B7023508031C350FB8023608031C360A5D
:1009EA00B9023F1401300310B70DB80DB90DFF3E1F
:1009FA00031DF82C0130BE02031DD82C3F08F0005D
:100A0A004008F1004108F2004208BA003A08F3002F
:100A1A004308BB003B08F4000A128A11B22170088D
:100A2A0083120313B4007108B5007208B6000800F7
:100A3A00831203132408AA002508AB002608AC0079
:100A4A0003102B0D2C0DAD002D08AE002E08031D32
:100A5A00352D0030A4000030A5000030A6000800A3
:100A6A002708AA002808AB002908AC0003102B0DA0
:100A7A002C0DAD002D08B3003308031D4B2D00309B
:100A8A00A4000030A5000030A600080033087B3E11
:100A9A00AA002A08AE072408AA002508AB002608DF
:100AAA00AC0010300310AC0CAB0CAA0CFF3E031DBB
:100ABA00572D2A08AD002D08B3002708AA002808D8
:100ACA00AB002908AC0010300310AC0CAB0CAA0C1C
:100ADA00FF3E031D692D2A08AD002D08B30680309C
:100AEA00AA002A08B305A517A817FF30A705FF30E3
:100AFA00A8050030A9050030AF000030B000003072
:100B0A00B1000730AA002A08B200241C9A2D27082F
:100B1A00AF07280803110318280A031DB00729087C
:100B2A0003110318290A031DB10701300310A60C8B
:100B3A00A50CA40CFF3E031D9B2D01300310A70D2D
:100B4A00A80DA90DFF3E031DA32D0130B202031DFE
:100B5A008A2D0930AA002A08B200241CC22D2708AF
:100B6A00AF07280803110318280A031DB00729082C
:100B7A0003110318290A031DB10701300310A60C3B
:100B8A00A50CA40CFF3E031DC32D01300310B10CAC
:100B9A00B00CAF0CFF3E031DCB2D0130B202031D7A
:100BAA00B22D2F08F0003008F1003108F2002E08AB
:100BBA00AA002A08F3003308AB002B08F4000A1233
:100BCA008A11B221700883120313A4007108A500C8
:100BDA007208A6000800831203132608AA00270831
:100BEA00AB002808AC002908AD0006300310AA0D96
:100BFA00AB0DAC0DAD0DFF3E031DFB2D2D08F30013
:100C0A002C08F2002B08F1002A08F0004030AE0050
:100C1A004230AF000F30B0000030B1002608B200F9
:100C2A002708B3002808B4002908B50006300310C5
:100C3A00B20DB30DB40DB50DFF3E031D1C2EB20946
:100C4A00B309B409B509B20A0319B30A0319B40AF4
:100C5A000319B50A3208AE0733080318330F362EC4
:100C6A00372EAF0734080318340F3C2E3D2EB00739
:100C7A0035080318350AB1073108F7003008F600BD
:100C8A002F08F5002E08F4000A128A1133230A12DB
:100C9A008A117108FA007008F90001307A020030EE
:100CAA0003197902031CBE2E831203132608AA0015
:100CBA002708AB002808AC002908AD00043003104F
:100CCA00AA0DAB0DAC0DAD0DFF3E031D642E2D0814
:100CDA00F3002C08F2002B08F1002A08F00040303B
:100CEA00AE004230AF000F30B0000030B10026082D
:100CFA00B2002708B3002808B4002908B500043058
:100D0A000310B20DB30DB40DB50DFF3E031D852EB4
:100D1A00B209B309B409B509B20A0319B30A031926
:100D2A00B40A0319B50A3208AE0733080318330F99
:100D3A009F2EA02EAF0734080318340FA52EA62E17
:100D4A00B00735080318350AB1073108F70030082B
:100D5A00F6002F08F5002E08F4000A128A11332330
:100D6A000A128A117108FA007008F900831603132F
:100D7A00181501307A0200300319790203180800A5
:100D8A00790883160313990018128312031398170C
:100D9A0018168316031398168717071708000030CA
:100DAA0083120313A9000030A8000430A700B03052
:100DBA00A6000A128A11F0250A128A110A128A1545
:100DCA00E3270A128A110A128A15B2270A128A110D
:100DDA00831203136708DD006608DC001F19FA2E68
:100DEA000A128A11C2230A128A118312031367088C
:100DFA00803AFF0080307F02031D052F19306602FA
:100E0A000318182F83120313E801E9010030F000D8
:100E1A00F1000A128A1148200A128A11003083123C
:100E2A000313A600822F831203136708803AFF0078
:100E3A0080307F02031D232F1A306602031C432FC2
:100E4A00831203136708803AFF0080307F02031D74
:100E5A00302F1E3066020318432F0130831203130A
:100E6A00E8000030E9000130F0000030F1000A1219
:100E7A008A1148200A128A1119307E2F831203130D
:100E8A006708803AFF0080307F02031D4E2F1F3013
:100E9A006602031C6E2F831203136708803AFF0051
:100EAA0080307F02031D5B2F2330660203186E2FEA
:100EBA00023083120313E8000030E9000230F00028
:100ECA000030F1000A128A1148200A128A113230BF
:100EDA007E2F033083120313E8000030E900033049
:100EEA00F0000030F1000A128A1148200A128A1111
:100EFA00643083120313A6000030A7000A128A1175
:100F0A001E220A128A118312031367085D06031D43
:100F1A00902F66085C060319ED2E01300A128A1119
:100F2A0026200A128A110A30F0000030F1008312DA
:100F3A0003136708F3006608F2000A128A1159219E
:100F4A000A128A11710883120313DF007008DE0087
:100F5A000A30F0000030F1006708F3006608F2007A
:100F6A000A128A11B5200A128A1171088312031310
:100F7A00E1007008E0005F08F2005E08F1000A1262
:100F8A008A1100210A128A11831203136108F200DE
:100F9A006008F1000A128A1100210A128A110D3022
:100FAA000A128A15A8270A128A110C300A128A1103
:100FBA0026200A128A11831203136908F2006808AC
:100FCA00F1000A128A1100210A128A110D300A123E
:100FDA008A15A8270A128A11ED2E83120313E20139
:100FEA00E301E401E501E601E701E801E901830122
:100FFA000A128A11D42E08308A000408840A820749
:10100A0000344E34683469346534743420346434BA
:10101A006F343A342034003454346F346334203417
:0A102A0064346F343A34203400348B
:101F5000F00083160313981CA92F70088312031333
:101F60009900080083160313071108148814081534
:101F70008815081288120813881383120313971503
:101F80001715971417141215121492140800FB0059
:101F90007B0883120313A000A101A2012008F00016
:101FA0002108F1002208F2008E30A3002308F3007C
:101FB000F4010A128A11B2217008F8007108F900C0
:101FC0007208FA000800FF308316031385008601AB
:101FD000831203131F139F17831603131F178312F4
:101FE00003139F121F129F11831603139F171F10B5
:101FF0009F101F119F11831203131F151F14080038
:02400E003A3F37
:00000001FF
